{
  "contractName": "gachonCoin",
  "abi": [
    {
      "inputs": [
        {
          "internalType": "string",
          "name": "_name",
          "type": "string"
        },
        {
          "internalType": "uint256",
          "name": "_bal",
          "type": "uint256"
        }
      ],
      "name": "regUser",
      "outputs": [],
      "stateMutability": "nonpayable",
      "type": "function"
    },
    {
      "inputs": [
        {
          "internalType": "string",
          "name": "_name",
          "type": "string"
        }
      ],
      "name": "checkBal",
      "outputs": [
        {
          "internalType": "uint256",
          "name": "",
          "type": "uint256"
        }
      ],
      "stateMutability": "view",
      "type": "function"
    },
    {
      "inputs": [
        {
          "internalType": "string",
          "name": "_from",
          "type": "string"
        },
        {
          "internalType": "string",
          "name": "_to",
          "type": "string"
        },
        {
          "internalType": "uint256",
          "name": "_amount",
          "type": "uint256"
        }
      ],
      "name": "transBal",
      "outputs": [],
      "stateMutability": "nonpayable",
      "type": "function"
    }
  ],
  "bytecode": "0x608060405234801561000f575f80fd5b5061065b8061001d5f395ff3fe608060405234801561000f575f80fd5b506004361061003f575f3560e01c80631329569b146100435780639deed0fb14610073578063e8b1e40b1461008f575b5f80fd5b61005d60048036038101906100589190610314565b6100ab565b60405161006a9190610373565b60405180910390f35b61008d600480360381019061008891906103b6565b6100d1565b005b6100a960048036038101906100a4919061043e565b6101a1565b005b5f80826040516100bb9190610504565b9081526020016040518091039020549050919050565b805f846040516100e19190610504565b908152602001604051809103902054111561016157805f846040516101069190610504565b90815260200160405180910390205f8282546101229190610547565b92505081905550805f836040516101399190610504565b90815260200160405180910390205f828254610155919061057a565b9250508190555061019c565b6040517f08c379a000000000000000000000000000000000000000000000000000000000815260040161019390610607565b60405180910390fd5b505050565b805f836040516101b19190610504565b9081526020016040518091039020819055505050565b5f604051905090565b5f80fd5b5f80fd5b5f80fd5b5f80fd5b5f601f19601f8301169050919050565b7f4e487b71000000000000000000000000000000000000000000000000000000005f52604160045260245ffd5b610226826101e0565b810181811067ffffffffffffffff82111715610245576102446101f0565b5b80604052505050565b5f6102576101c7565b9050610263828261021d565b919050565b5f67ffffffffffffffff821115610282576102816101f0565b5b61028b826101e0565b9050602081019050919050565b828183375f83830152505050565b5f6102b86102b384610268565b61024e565b9050828152602081018484840111156102d4576102d36101dc565b5b6102df848285610298565b509392505050565b5f82601f8301126102fb576102fa6101d8565b5b813561030b8482602086016102a6565b91505092915050565b5f60208284031215610329576103286101d0565b5b5f82013567ffffffffffffffff811115610346576103456101d4565b5b610352848285016102e7565b91505092915050565b5f819050919050565b61036d8161035b565b82525050565b5f6020820190506103865f830184610364565b92915050565b6103958161035b565b811461039f575f80fd5b50565b5f813590506103b08161038c565b92915050565b5f805f606084860312156103cd576103cc6101d0565b5b5f84013567ffffffffffffffff8111156103ea576103e96101d4565b5b6103f6868287016102e7565b935050602084013567ffffffffffffffff811115610417576104166101d4565b5b610423868287016102e7565b9250506040610434868287016103a2565b9150509250925092565b5f8060408385031215610454576104536101d0565b5b5f83013567ffffffffffffffff811115610471576104706101d4565b5b61047d858286016102e7565b925050602061048e858286016103a2565b9150509250929050565b5f81519050919050565b5f81905092915050565b5f5b838110156104c95780820151818401526020810190506104ae565b5f8484015250505050565b5f6104de82610498565b6104e881856104a2565b93506104f88185602086016104ac565b80840191505092915050565b5f61050f82846104d4565b915081905092915050565b7f4e487b71000000000000000000000000000000000000000000000000000000005f52601160045260245ffd5b5f6105518261035b565b915061055c8361035b565b92508282039050818111156105745761057361051a565b5b92915050565b5f6105848261035b565b915061058f8361035b565b92508282019050808211156105a7576105a661051a565b5b92915050565b5f82825260208201905092915050565b7f6e6f7420656e6f7567682062616c616e636500000000000000000000000000005f82015250565b5f6105f16012836105ad565b91506105fc826105bd565b602082019050919050565b5f6020820190508181035f83015261061e816105e5565b905091905056fea2646970667358221220bace80197383ebc096b3fd756b424246d4c2eb3a6315b1b1aeeef51f0415d7d164736f6c63430008140033",
  "immutableReferences": {},
  "source": "// SPDX-License-Identifier: MIT\r\npragma solidity ^0.8.20;\r\n\r\ncontract gachonCoin {\r\n    mapping (string => uint256) balance;\r\n\r\n    function regUser (string memory _name, uint256 _bal) public {\r\n        balance[_name] = _bal;\r\n    }\r\n\r\n    function checkBal(string memory _name) public view returns (uint256) {\r\n        return balance[_name];\r\n    }\r\n\r\n    function transBal(string memory _from, string memory _to, uint256 _amount) public {\r\n        if(balance[_from] > _amount) {\r\n            balance[_from] -= _amount;\r\n            balance[_to] += _amount;\r\n        }\r\n        else {\r\n            revert(\"not enough balance\");\r\n        }\r\n    }\r\n}\r\n ",
  "sourcePath": "/home/ubuntu/truffle/3/contracts/gachonCoin.sol",
  "compiler": {
    "name": "solc",
    "version": "0.8.20+commit.a1b79de6.Emscripten.clang"
  },
  "schemaVersion": "3.4.16",
  "updatedAt": "2025-06-01T17:50:32.879Z",
  "devdoc": {
    "kind": "dev",
    "methods": {},
    "version": 1
  },
  "userdoc": {
    "kind": "user",
    "methods": {},
    "version": 1
  }
}